:020000040800F2
:10000000900400204901000841040008D1030008C1
:100010003D04000891010008C90C00080000000020
:10002000000000000000000000000000C9070008F8
:100030009501000800000000B5040008B50800089C
:100040006301000863010008630100086301000800
:1000500063010008630100086301000863010008F0
:1000600063010008630100086301000863010008E0
:1000700063010008630100086301000863010008D0
:1000800063010008630100086301000863010008C0
:1000900063010008630100086301000863010008B0
:1000A00063010008630100086301000863010008A0
:1000B0006301000863010008630100086301000890
:1000C0006301000863010008630100086301000880
:1000D000630100081D0A00086301000863010008AD
:1000E0006301000863010008630100086301000860
:1000F0006301000863010008630100086301000850
:10010000630100086301000863010008630100083F
:10011000630100086301000863010008630100082F
:10012000630100086301000863010008630100081F
:10013000DFF810D000F01AF8004800473B0D000827
:10014000AFF300809004002006488047064800472F
:10015000FEE7FEE7FEE7FEE7FEE7FEE7FEE7FEE777
:10016000FEE7FEE7B908000831010008064C074D1C
:1001700006E0E06840F0010394E807009847103477
:10018000AC42F6D3FFF7D8FF600D0008800D0008E1
:1001900000BFFEE77047000010B5044600200F497D
:1001A00008716FF400502044A8B9486A00F0BDFB04
:1001B0000B4908600949098D88B200F0ADFB00B217
:1001C000074988800549498D88B200F0A5FB00B237
:1001D0000349C88000E000BF00BF10BD1C00002024
:1001E000140000200549096821F01001034A11603C
:1001F0001146096801431160704700000020024069
:1002000001460020034A106800F0380008431060DF
:10021000704700000020024010B50346002001E0B6
:100220001A54401C8842FBD310BD2DE9F041024610
:1002300000250026002000230024002791F803C099
:100240000CF00F0591F803C00CF0100CBCF1000F7E
:1002500003D091F802C04CEA050591F800C0BCF14A
:10026000000F31D0146800202BE04FF0010C0CFA85
:1002700000F3B1F800C00CEA03069E4220D18300CF
:100280004FF00F0C0CFA03F7BC4305FA03FC4CEAE1
:10029000040491F803C0BCF1280F06D14FF0010C03
:1002A0000CFA00FCC2F814C00AE091F803C0BCF1DB
:1002B000480F05D14FF0010C0CFA00FCC2F810C039
:1002C000401C0828D1D31460B1F800C0BCF1FF0F66
:1002D00034DD546800202EE000F1080C4FF00108D6
:1002E00008FA0CF3B1F800C00CEA03069E4221D1D3
:1002F00083004FF00F0C0CFA03F7BC4305FA03FC24
:100300004CEA040491F803C0BCF1280F05D100F1B8
:10031000080C08FA0CF8C2F8148091F803C0BCF17C
:10032000480F07D100F1080C4FF0010808FA0CF84B
:10033000C2F81080401C0828CED35460BDE8F0817C
:10034000F0B50A46002300240021002500F00046F5
:10035000B6F1004F02D11D4EF16901E01B4E7168EC
:10036000C0F3034583B200F44016B6F5401F08D130
:1003700021F07061154E766826F07066134F7E602E
:1003800012E000F48016B6F5801F06D1032606FAA7
:1003900005F4A14341F0706106E0460D360103FA11
:1003A00006F6B14341F0706122B1460D360103FA01
:1003B00006F6314300F00046B6F1004F02D1034E7D
:1003C000F16101E0014E7160F0BD000000000140EC
:1003D00000BFFEE710B545F2555000F029F80620A1
:1003E00000F01AF84FF49C7000F01CF800F00CF8C4
:1003F00000F002F810BD00004CF6CC400149086046
:1004000070470000003000404AF6AA200149086009
:10041000704700000030004001494860704700000C
:100420000030004001498860704700000030004003
:1004300001490860704700000030004000BFFEE73F
:100440007047000070B5002100230F22C47804B368
:10045000154C246804F4E064C4F5E064210AC1F199
:100460000403CA40447804FA03F184781440214319
:1004700009010E4C0678A155047804F01F050124EB
:10048000AC4005786D11AD0005F1E025C5F80041DF
:1004900009E0047804F01F050124AC40044D0678FF
:1004A000761145F8264070BD0CED00E000E400E058
:1004B00080E100E07047000029B1064A92690243DA
:1004C000044B9A6104E0034A92698243014B9A61AA
:1004D000704700000010024010B586B000F036F8FA
:1004E0004FF4803000F0F6F800F052F9044634B3CF
:1004F0001020FFF777FE0220FFF782FE002000F0B9
:10050000DDF8002000F018F94FF4806000F008F9E1
:100510004FF4E0114FF4403000F020F9012000F0DA
:1005200017F900BF392000F0A3F80028FAD0022004
:1005300000F022F900BF00F0B9F80828FBD101A8AB
:1005400000F02AF8002006B010BD00000F48006837
:1005500040F001000D490860084640680C49084019
:100560000A494860084600680A4908400749086087
:100570000846006820F4802008600846406820F49F
:10058000FE0048604FF41F00886070470010024072
:100590000000FFF8FFFFF6FE30B500210022002426
:1005A00000232D4D6D6805F00C0121B1042905D003
:1005B000082923D105E0294D056022E0284D05607A
:1005C0001FE0254D6D6805F47012234D6D6805F42C
:1005D0008034022505EB92421CB9224D554305603B
:1005E0000BE01D4D6D6805F400351DB11B4D5543E5
:1005F000056002E01A4D5543056002E0174D0560A5
:1006000000BF00BF144D6D6805F0F0010909164DDB
:100610006B5C0568DD4045600F4D6D6805F4E06179
:10062000090A114D6B5C4568DD4085600A4D6D68B7
:1006300005F46051C90A0C4D6B5C4568DD40C5602E
:10064000054D6D6805F44041890B084D6B5CC5682C
:10065000B5FBF3F5056130BD0010024000127A00D1
:100660000024F40000093D000000002010000020DC
:1006700010B501460022002300204A11012A02D1B0
:10068000094C236806E0022A02D1074C236A01E0E4
:10069000054C636A01F01F02012494401C400CB118
:1006A000012000E0002010BD001002400248406818
:1006B00000F00C00704700000010024001460020CE
:1006C000034A506820F0F000084350607047000073
:1006D000001002401149096821F480310F4A11606D
:1006E0001146096821F480211160B0F5803F03D0E4
:1006F000B0F5802F0ED106E00849096841F4803139
:10070000064A116007E00549096841F4A021034A3F
:10071000116000E000BF00BF704700000010024001
:1007200001460020034A506820F4E060084350600E
:10073000704700000010024001460020034A506844
:1007400020F4605040EAC100506070470010024041
:10075000014908667047000000004242024600203E
:10076000044B586820F47C1042EA01031843014B03
:10077000586070470010024001460020034A50684C
:1007800020F0030008435060704700000010024052
:1007900038B5002000900024002500BF3120FFF76D
:1007A00067FF05460098401C00900098B0F5A06FC8
:1007B00001D0002DF2D03120FFF75AFF08B10124FB
:1007C00000E00024204638BD704710B500F002F864
:1007D00010BD00000CB50020019000903348006867
:1007E00040F480303149086000BF3048006800F4B0
:1007F000003000900198401C0190009818B90198B1
:10080000B0F5A06FF1D12948006800F4003010B1B4
:100810000120009001E0002000900098012843D1C1
:100820002348006840F0100021490860084600682D
:1008300020F0030008600846006840F002000860ED
:100840001A484068194948600846406848600846A8
:10085000406840F4806048600846406820F47C109E
:1008600048600846406840F4E81048600846006860
:1008700040F08070086000BF0C48006800F0007015
:100880000028F9D00948406820F003000749486073
:100890000846406840F00200486000BF03484068D6
:1008A00000F00C000828F9D10CBD00000010024037
:1008B000002002407047000010B51348006840F067
:1008C00001001149086008464068104908400E4977
:1008D0004860084600680E4908400B490860084611
:1008E000006820F4802008600846406820F4FE007C
:1008F00048604FF41F008860FFF767FF4FF000600B
:100900000449086010BD0000001002400000FFF81C
:10091000FFFFF6FE08ED00E001464FF6FF7000EA2B
:1009200001230A12981880B2704701460A0602EBAA
:10093000116201F47F4302EB032201F47F0302EB17
:100940001320704710B586B0044602940020ADF81D
:100950000C00ADF80E00ADF81000ADF814000C203E
:10096000ADF8120001210520FFF7A6FD00210420AB
:10097000FFF7E6FC01218803FFF79EFD18208DF8A4
:1009800007004FF40070ADF8040003208DF8060056
:1009900001A92048FFF749FC04208DF80700000258
:1009A000ADF8040001A91B48FFF73FFC02A91A4853
:1009B00000F01EF9012240F22551174800F0F2F82C
:1009C0000121154800F0AFF825208DF8000008201F
:1009D0008DF8010000208DF8020001208DF8030041
:1009E0006846FFF72FFD012280210B4800F0A7F891
:1009F0000E208DF8000009208DF8010000208DF8F0
:100A0000020001208DF803006846FFF71BFD06B0C9
:100A100010BD0000000801400038014010B540F250
:100A20002551374800F094F8002868D03448001D5C
:100A30000088C4B23348007818B1324800780228E0
:100A400058D1304801890089401C2E4A108102F19A
:100A50001000445432201146C86002200870084635
:100A6000407850B308468078401C887008468078EB
:100A7000052801D10846C4802248807806280ED176
:100A80002048807904EB00201E49C8800846C088B1
:100A900042F20101884202D121201A49C870194846
:100AA00080781849C978884207D1002015494870D4
:100AB0008870C870C88003200870FF2C05D11148C9
:100AC0000079401C0F49087102E000200D490871AF
:100AD0000C480079042806DB00200A49087101202F
:100AE00048700420088107480089642802DB03203D
:100AF0000449087040F22551014800F005F810BD86
:100B0000003801401C00002010B50022002340F6F0
:100B10006A14A14200D100BF0A1201249440A3B27A
:100B2000DC43048010BD21B1828942F400528281ED
:100B300004E082894DF6FF731A40828170471AB132
:100B4000838A0B43838202E0838A8B4383827047CC
:100B500070B50246002400230025002040F66A16E6
:100B6000B14200D100BFC1F3421501F01F030126BD
:100B700006FA03F3012D02D19689334006E0022DD7
:100B800002D1168A334001E0968A33400C120126C6
:100B900006FA04F41688344013B10CB1012000E0C9
:100BA000002070BDF0B5034600240026002500207B
:100BB00040F66A17B94200D100BF1846C1F342148B
:100BC00001F01F06012707FA06F5012C01D10C30B0
:100BD00004E0022C01D1103000E014301AB1076893
:100BE0002F43076002E00768AF430760F0BD0000D5
:100BF0002DE9F04786B005460E460024A24600BF08
:100C0000A1460027B08900B100BF2F462C8A4CF6C0
:100C1000FF700440F08804432C82AC894EF6F31038
:100C20000440B08831890843718908430443AC818A
:100C3000AC8A4FF6FF400440B0890443AC8201A85F
:100C4000FFF7AAFC1F48874202D1DDF810A001E09F
:100C5000DDF80CA0A88900F4004040B10AEBCA00FE
:100C600000EB0A1031684900B0FBF1F807E00AEB2D
:100C7000CA0000EB0A1031688900B0FBF1F864206B
:100C8000B8FBF0F004012009642101FB1089A88958
:100C900000F4004040B1322000EBC900B0FBF1F09D
:100CA00000F00700044308E0322000EB0910642143
:100CB000B0FBF1F000F00F0004432C8106B0BDE85A
:100CC000F08700000038014000BFFEE710B500F0DB
:100CD00001F810BD10B508480078032800D010BDF9
:100CE0000549088BFFF718FE0446FFF755FA00F098
:100CF00005F800BFF3E700001C00002010B500203D
:100D000005490870C860088100226421024810303B
:100D1000FFF782FA10BD00001C00002002E008C8A6
:100D2000121F08C1002AFAD170477047002001E065
:100D300001C1121F002AFBD1704700F006F803E042
:100D4000FFF762FBFFF7C2FFFAE710B5FFF7C4FB3E
:100D50004FF4E130FFF7F6FDFFF73CFB002010BD3C
:100D6000800D0008000000201C0000001C0D000881
:100D70009C0D00081C000020740400002C0D0008CD
:100D80000000000001020304010203040607080931
:0C0D900002040608000000000000000043
:0400000508000131BD
:00000001FF
